:100000000C942A000C947C010C943C000C943C0051
:100010000C943C000C943C000C943C000C943C0070
:100020000C943C000C943C000C943C000C943C0060
:100030000C943C000C943C000C943C000C943C0050
:100040000C943C000C943C000C943C000C943C0040
:100050000C943C0011241FBECFE5D8E0DEBFCDBF1D
:1000600020E0A0E6B0E001C01D92A336B207E1F7A0
:100070000E94A3010C940A030C94000060E080E04D
:100080000E94970161E080E00E94970162E080E0B9
:100090000E94970160E081E00E94970161E081E0A9
:1000A0000E94970162E081E00E9497010E94910105
:1000B0000E948A020E94970260E080E00E949F01F5
:1000C00061E080E00E949F0162E080E00E949F0169
:1000D00060E081E00E949F0161E081E00E949F0159
:1000E00062E081E00E949F0161E070E080E090E0CA
:1000F0000E94D6020895CF93DF9362E080E00E94D1
:100100009B0160E081E00E949B0168E873E180E070
:1001100090E00E94D6021092610010926200C0E04E
:10012000D0E01DC061E080E00E949B0161E081E0C1
:100130000E949B0164EF71E080E090E00E94D60293
:1001400061E080E00E949F0161E081E00E949F01E8
:1001500064EF71E080E090E00E94D6022196C53005
:10016000D10500F362E080E00E949F0160E081E041
:100170000E949F01DF91CF910895CF9361E070E0DD
:1001800080E090E00E94D60260E080E00E949B0147
:100190001092620068E873E180E090E00E94D6026D
:1001A00080916000813009F05FC061E080E00E94D2
:1001B0009F0162E081E00E949B01C09161001FC02D
:1001C0001092620061E080E00E949B0161E081E0AA
:1001D0000E949B0164EF71E080E090E00E94D602F3
:1001E00061E080E00E949F0161E081E00E949F0148
:1001F00064EF71E080E090E00E94D602CF5FC530EE
:10020000F8F260E080E00E949F0162E081E00E94DD
:100210009F010E947B001092600010926100AECF9F
:100220001092620061E080E00E949B0164EF71E047
:1002300080E090E00E94D602809160008111B0CFF2
:1002400061E00E949F0164EF71E080E090E00E9415
:10025000D602809161008F5F809361008091600081
:1002600081119ECFCF5F01C0C0E0C530C8F21092AF
:10027000610060E080E00E949F0162E080E00E94F7
:100280009B0168E873E180E090E00E94D6028091D3
:100290006000882341F11092610061E080E00E94DB
:1002A0009F010E947B001092600068CF61E080E0B7
:1002B0000E949B0164EF71E080E090E00E94D60212
:1002C000809160008111E3CF61E00E949F0164EFA3
:1002D00071E080E090E00E94D60280916000811180
:1002E000D6CFCF5F01C0C0E0C53000F362E080E050
:1002F0000E949F01CF9108951F920F920FB60F9207
:1003000011248F9380916000813029F081E08093E7
:100310006000809362008F910F900FBE0F901F902E
:10032000189540E062E083E00E94A801089541E052
:100330000E94A801089541E00E941902089540E03A
:100340000E94190208950E943E000E94BD00FDCF48
:10035000442319F04130C9F10895813091F028F01B
:100360008230D9F0833029F108952AB381E090E0FA
:1003700002C0880F991F6A95E2F7809582238ABB95
:10038000089527B381E090E002C0880F991F6A9515
:10039000E2F78095822387BB089524B381E090E043
:1003A00002C0880F991F6A95E2F78095822384BB6B
:1003B000089521B381E090E002C0880F991F6A95EB
:1003C000E2F78095822381BB0895813089F028F07F
:1003D0008230C9F0833011F108952AB381E090E0B2
:1003E00002C0880F991F6A95E2F7822B8ABB089595
:1003F00027B381E090E002C0880F991F6A95E2F769
:10040000822B87BB089524B381E090E002C0880F5F
:10041000991F6A95E2F7822B84BB089521B381E08E
:1004200090E002C0880F991F6A95E2F7822B81BB8A
:100430000895442319F04130C9F10895813091F0B5
:1004400028F08230D9F0833029F108952BB381E070
:1004500090E002C0880F991F6A95E2F78095822389
:100460008BBB089528B381E090E002C0880F991FEC
:100470006A95E2F78095822388BB089525B381E0D1
:1004800090E002C0880F991F6A95E2F78095822359
:1004900085BB089522B381E090E002C0880F991FC8
:1004A0006A95E2F78095822382BB0895813089F0B6
:1004B00028F08230C9F0833011F108952BB381E028
:1004C00090E002C0880F991F6A95E2F7822B8BBBE0
:1004D000089528B381E090E002C0880F991F6A95C3
:1004E000E2F7822B88BB089525B381E090E002C03B
:1004F000880F991F6A95E2F7822B85BB089522B376
:1005000081E090E002C0880F991F6A95E2F7822B84
:1005100082BB08958FB780688FBF8BB780648BBF15
:1005200085B7816085BF85B7826085BF08958FB527
:100530008E7F8FBD8FB58D7F8FBD8EB588608EBD50
:100540008EB58F7E8EBD1DBC1CBC089561342FE11D
:10055000720781059105A8F4A8EEB3E09B01AC01F8
:100560000E94F002DC01CB01689416F8B695A795BD
:10057000979587951694D1F7BC01615071097BBDA1
:100580006ABD08958EB581608EBD8EB58D7F8EBD9E
:100590008EB584608EBD08958EB58E7F8EBD8EB56E
:1005A0008D7F8EBD8EB58B7F8EBD089528B720615F
:1005B00028BF109262000E94A6020E94C20208B6E2
:1005C00004FC04C0809162008823C9F30E94CC021D
:1005D0001DBC1CBC1092620088B7806188BF089562
:1005E0000E94FB02A59F900DB49F900DA49F800DCB
:1005F000911D11240895A29FB001B39FC001A39F34
:10060000700D811D1124911DB29F700D811D11244B
:08061000911D0895F894FFCF3D
:00000001FF
